:030000000219BB27
:0C19BB00787FE4F6D8FD75819D021A02C9
:101DF200434D44202F4320225354415254206874AF
:101E02007470733A2F2F6F7368776875622E636FE1
:101E12006D2F79414E675A454E2F7A75692D67614C
:101E2200692D7368756F2D7A692D6A69616E2D70DF
:101E3200616E220D00005AFFA6003CFFC4001EFF87
:051E4200E2003CFFC4BA
:10192300011E00011F0002960000019500011B002B
:06193300011C00011D0073
:102178007E007F407D007B017A017900221222E5F2
:102188007B007A007939227DFAAE23AF247C0012D5
:102198000B9DED22789AE65407799BF722F583E4A4
:0721A80093FE740193FF2276
:10241C0075FFA075A15575A1AA75B98C75A98043D6
:06242C00B101E4F5A1225C
:07253000E587C45403FF22FC
:0A24E50075A15575A1AA43B110229C
:0C002E007F0A7E1F7D93DDFEDEFCDFFA02
:01003A0022A3
:042560007596EF225B
:102470005389F0438902758A06758C06C28DD28C09
:03248000D2A922BC
:1022E500EF75F00584FEC374F09EF5FFEFD39400FF
:1022F5004010E51EC3940440F974FC251EF51E1F0D
:0323050080EA2249
:101655001225038F251200468F261221887D01123F
:101665000E191225157F641221857D031217097D38
:101675000512170912171B7F641222E5121724EEB3
:10168500C313EF13F524E4F523121724C3E5239FB1
:10169500E49E5037E523C395245009E5242403C36C
:1016A50095238007E5232403C39524FF1222E51221
:1016B5002188E523901DF293FD120E191225157F41
:1016C5000312218512171B052380BE7F0512218574
:1016D500E52560047D0380027D041216F7E526608A
:1016E500047D0580027D061216F7E4FD120E19022F
:0216F5002515B9
:1016F700120E191225157F051222E57B007A007953
:101707003922120E191225157F321222E57B007A33
:1017170000793922E4FD120E19122515227BFF7A72
:071727001D79F21224472294
:101D9700E4F523F5241224327F011222E50524E518
:101DA7002470020523C394B8E523940B503C1221F9
:101DB7008F4C70057FFF12254512218F647D4C7073
:101DC70004FF1225457D0B1221914C70CBD3E524DE
:101DD70094B0E5239404400DE5249408E523940783
:0A1DE700500312123812000380AE00
:011DF10022CF
:1010FD0012250CEF7003021237900080E0120BF2F4
:10110D00113801114602115A0311650411863F1160
:10111D009B4F11E35011EE511213521231531132F4
:10112D00FF000012341224F902123412255B9000D4
:10113D0081E0FF122545021234122178120C18128B
:10114D00217E1223B212217E7D0702122C90008186
:10115D00E0FF121FC4021234900082E024FE6010E2
:10116D00046003021234751F01789B760802123455
:10117D00E4F51F12219C0212347B017A00798490D0
:10118D000082E0FDA3E0F534121BD10212341221CE
:10119D0078120C18E4F52374802523F582E43400CD
:1011AD00F583E0FF74002523F582E43401F583EF28
:1011BD00F00523E523B404DF7B017A017904900166
:1011CD0002E0FDA3E0F53012226F12217E900103A3
:1011DD00E02404FD80497B017A007981121CC680D0
:1011ED0046122178120C189001007451F090008174
:1011FD00E0FF7B017A017901121EF08F2312217E0F
:10120D00E52304FD8019122178120C189001007449
:10121D0052F01224B4900101EFF012217E7D0212E2
:0A122D001F828003121AD312256AF3
:011237002294
:1004530012241C122560122494122530EF30E0354B
:10046300D2AF121B54122470E47895F67F32122215
:10047300E51224CFEF6009789506E6C3940A40ECB1
:100483001224CFEF70FAFF1222E5E47895F67898FC
:10049300F608F68017D2AF121B5412002E122470E6
:1004A300E4FF1222E578987627087610122556780D
:1004B3009AEFF6E6FE5470FDC4540F789CF6EE54A2
:1004C30007789BF6EF30E705122537800312256482
:1004D3007F011224DA12245C122140EF70061217F6
:1004E3002EBF051812255B121D971224F9E4FF1283
:1004F300253EE4789AF6789CF6789BF6121AD3E4B4
:10050300F51E1200031210FD7F011222E57897E613
:100513001846601508E616187001167897E618460F
:100523007007789AE6FF12253EE51F7004E51D600B
:10053300047F0180027F00120C44EF120BF205636B
:1005430001058202059F0305A70405AC0505C60640
:1005530005CB0705D08005DF8105EDFE000005F022
:1005630020AD02801D789C06E65407F6789AE6547F
:100573008FFFF6789CE6FEC454F04F789A802220D1
:10058300AD051224F98066789B06E675F00584AF05
:10059300F0EFF6789AE654F8F64F8005789AE66419
:1005A30008F680161216558044789AE66480F63071
:1005B300E70512253780031225647896764E087670
:1005C30020802A12251E80251225278020E51F6002
:1005D3000512219C8017789B76088011E51F700413
:1005E3007F0180027F008F1F80031224EF122515E5
:1005F300EF70031223D3789506E6C3940B500302DE
:10060300073EE4F6E51C6009D51C06E4FFFE122351
:1006130091751D01E51F606BE4FF120774EF24FB66
:10062300601A14601C14602214602714603624F4CA
:1006330060482415600302073E020701751C2D80E4
:1006430003751C097F017E00802A051B531B0302CF
:10065300073EE51B25E025E02437F582E4341E122E
:1006630021A58010E51B25E025E02439F582E4343B
:100673001E1221A512239102073E12219CE4F51FAD
:1006830002073E120046EF604AE4FF120774EF24AC
:10069300FB601914601C14601F146022146025246D
:1006A300F560272414600302073E80527541B602A9
:1006B300073E7541CD02073E7541B502073E7541C0
:1006C300E902073E7541EA02073E789B7608751FEB
:1006D3000180687F01120774EF120BF20701000714
:1006E3000605070B06071007071508071A0907155C
:1006F3000A071A0B072614072E150000073EE4F518
:100703001D803875416F8033754192802E7541701D
:1007130080297526FF8003752601E4FBFDFF122265
:100723004680181207687526018006120768752629
:10073300FFE4FBFDFF122246E4F5397899E61846FB
:10074300700302050808E616187001167899E61872
:100753004660030205081224CFEF70030205081256
:0507630024E502050879
:0C0768007539011225157F021222E522CE
:03000B0002003EB2
:05003E00C28D051E3219
:100F9B0005010906A1018501050719E029E71500DF
:100FAB002501750195088102950175088103950549
:100FBB007501050819012905910295017503910326
:100FCB0095067508150025FF050719002965810091
:100FDB00C005010902A10185020901A1000509193A
:100FEB0001290315002501950375018102950175F2
:100FFB0005810305010930093109381581257F75F4
:10100B000895038106C0C0050C0901A101850319D0
:10101B00002A3C031500263C03950175108100C086
:10102B000501090EA1018504050D0921A100050982
:10103B00090195017501150025018102050109378B
:10104B009501750F550F651436F0F146100E16F01D
:10105B00F126100E8106C0C00600FF0901A101098F
:10106B000215002600FF7508954081060902150040
:10107B002600FF750895409106C012010002000082
:10108B0000406230004702020102030109024200E4
:10109B00020100A05A09040100010300000009210C
:1010AB001101000122C80007058203400001090459
:1010BB0003000203000000092100010001222200AD
:1010CB0007058403400001070504034000020403E5
:1010DB0009040E033B757F67535F03541F75DC8355
:1010EB001203104E3100370054006F00750063007F
:0210FB0068008B
:10193900C10D094B0100000000000000000554031F
:0E19490000000000C10AC10CC189C10BC10819
:101C4C00120AB4C3785DE69537F618E69536F6AE0B
:101C5C00367869E53726F618EE36F622785CE6FE1D
:101C6C0008E6FFC39440EE9400227E007D007B01C9
:101C7C00020C18786A7600789876030876E822D3F6
:101C8C00785DE6953718E69536228E368F37784094
:101C9C007C007D01227867860B08E6FA08E6F922BB
:101CAC007E007D007B00020C187536FF7537FF2215
:0A1CBC00900043E0FE900042E02299
:101B5400E4785EF6785CF608F6786AF6785AF61851
:101B6400F6C2EA75E206F5D1FE7F08FDFB7A00793C
:101B74005F120C187FC07A007940121C767F407A7D
:101B8400007900121C767B017A017962121572E4E5
:101B9400F5E275D18043D180F5DF75ED0075EC4039
:101BA40043EA0C75DE0275DC02F5DD75E50075E4CB
:101BB4000043EB0453EBFE75D410F5D5F5E343E293
:0D1BC4002943D10175D8FF75E107D2EA224F
:102308008D2CE52CD3944040047F408002AF2C8F65
:102318002C7E0078007C007D01120AB4852CD553F0
:03232800D4FC22C0
:101F82008D24200DFDD20DE524D3944040047F40E2
:101F92008002AF248F247E0078C07C007D01120A6B
:101FA200B4C374409524FFE49400FE7D0074C02500
:101FB20024F9E43400FA7B01120C1875DF4053DE79
:021FC200FC22FF
:062047008B278A2889297D
:10204D00E4F52AFFAB27AA28A9298F8275830012F0
:10205D000AF3FE744C2FF8E66E6009744C2FF8A647
:10206D0006752A010FBF08DCE52A600B7B007A009C
:09207D00794B7D09122308AF2AFA
:012086002237
:062246008F238D248B257F
:10224C007F057A007927121CAC7527028523288517
:10225C00242985252A85262B7B007A0079277D0564
:03226C0002230842
:042391008E238F24E4
:102395007F047A007925121CAC75250485242685D1
:0D23A50023277B007A0079257D03022308A1
:10210500E4F5237855E66F6005A607752301E523F9
:102115006026EF64926003BF830678567601800DD2
:10212500BF2306785676028004E47856F67B007A5B
:0A2135000079547D05122308AF2342
:01213F00227D
:0822BF008C108D118A128B13A3
:1022C700E4F5147515058F168511178510188513F4
:0E22D7001985121AFB7A0079157D060223087C
:03256400C20A2286
:07253700D20AA20C92092256
:03256700B2092294
:10004600300A093009037F01227F0022300C037F2A
:0500560001227F0022E1
:09250300300B037F01227F00224E
:09250C003008037F01227F002248
:03256A00C2082282
:0B24CF00786AE670037F01227F002284
:0300430002005E5A
:0D005E00C0E0C0F0C083C082C0D075D008E3
:10006B0020D903020413E5D9543F70030203E7249C
:10007B00FE602824FE604024E470030203A424FCE9
:10008B00602224F46046240E600302041175D5002F
:10009B00E5D454FC4402F5D402041120DE0302041F
:1000AB001102041175DF0063DE40C20DE5DE54FC66
:1000BB004402F5DE02041120DE03020411AFDB75EE
:1000CB0036008F3763DE80D208020411AFDB753642
:1000DB00008F37E5376408453660030203749000E0
:1000EB0047E0FE900046E07C002400785DF6EC3E95
:1000FB0018F6753600753700900041E0785EF69083
:10010B000040E054606033E624FD601524F960097B
:10011B0014600E24097007800875DD008003121C23
:10012B00B5121C8B4005A63608A637121C68400773
:10013B007E007F40020249020249785EE6B40B0062
:10014B004003020372900157F828287302034E02F2
:10015B0002910203720202D00203720202590201DF
:10016B00780203720202680202870203779000434F
:10017B00E024FE601A14602A24E1607C24216003D1
:10018B00020231786776FF087610087685804F7803
:10019B006776FF087610087697753600753742023A
:1001AB000234900042E01460191460282402703667
:1001BB00786776FF0876100876D9753600753704A0
:1001CB008067786776FF0876100876DD75360075E0
:1001DB00370E8055786776FF0876100876EB753604
:1001EB0000753712804378677601087601087662CE
:1001FB0075360075371E8031900044E024FD601683
:10020B0024027022786776FF08760F08769B753686
:10021B00007537C88010786776FF0876100876630C
:10022B00753600753722121CB5121C8B4005A6368D
:10023B0008A637121C6840067E007F408000121C07
:10024B0096C008121CA1D008121C4C020377900018
:10025B0042E0FF785C760008A60F0203777859E638
:10026B00900040F0C3785DE6940118E694005003CB
:10027B00020377753600753701020377900042E071
:10028B007859F6020377900040E0541F64027032F5
:10029B00900044E024FE600E24FE60202480601158
:1002AB00240270418000E5D454BC4402F5D402030F
:1002BB0077E5DE54BC4402F5DE02037753DE7302AE
:1002CB000377020374900040E0541FFD701A121C58
:1002DB00BCFBEB64014E700D90109E9330E5030256
:1002EB000377020374020374ED64027054121CBC96
:1002FB00FDED4E704A900045E0FE900044E0FDEDB0
:10030B00FFEE7039EF24FE601624FE602624806019
:10031B001824027028E5D454BF4403F5D4804DE56E
:10032B00D4547F440CF5D48043E5DE54BF4403F52D
:10033B00DE8039E5DE547F440CF5DE802F802A8089
:10034B00288026900040E4F0A3F0785CE6FE08E6F7
:10035B00FFC39402EE940040087536007537028097
:10036B000B8E368F3780058000121CB5E537B4FF36
:10037B000FE536B4FF0A785E76FF75DCCF02041109
:10038B00D3E5379440E536940050058537DD80037F
:10039B0075DD0075DCC0020411785EE624FB602776
:1003AB001460042405702D121C6840067E007F40EB
:1003BB008000121C96C008121CA1D008121C4C8580
:1003CB0037DD63DC40803F785DE6FFE5E354804F2B
:1003DB00F5E3800375DD0075DC02802AE5DB640242
:1003EB00701D900040E0B40116A3E0FF30E004D292
:1003FB000C8002C20CEF30E104D20B8002C20B78EE
:10040B006A760163DC80C2D930D81775DC0275D4EB
:10041B001275DE02C20D75E300C2DAC2D9C2D81260
:10042B001C7F30DA15C2DAE5DA30E211539DF7435F
:0D043B008702439D08121C7F800375D8FFC7
:0B044800D0D0D082D083D0F0D0E032C2
:1021E500605C5E5A535455565F6157595B5862633C
:1021F5005D605C5E5A532B2B2A5F6158595B5862B0
:10220500630052504F51532B2B2A4A4B284D4E28D1
:03221500494C0031
:101957000839000000000000000001410001830079
:10196700018400048500000000018900C112028A79
:101977000000028C0000018E00048F0000000001AF
:081987009300019400013800F7
:102298007402AB27AA28A929120B57AB27AA28A989
:1022A8002922788AE6FE08E6FF7C037DE8227C0383
:0722B8007DE8AE02020B9D60
:101A4700EF75F05084FEEF75F05084AFF0E53AC3C0
:101A570094065077EE1460251460582402706CEFDA
:101A6700C394115066E53AC39406505FEF9021E5A1
:101A770093FFAE3A053A743B2EF8A60722EFC394BC
:101A8700115048E53AC394065041789AE630E70684
:101A9700EF9022078004EF9021F693FEAD3A053AC6
:101AA700743B2DF8A606EF24F660042405701C7518
:101AB700390222EFC394115012752A00752B007555
:0B1AC7002C417B007A0079391217EAED
:011AD20022F1
:04254C007F1BDFFE14
:012550002268
:10172E00E4FEFDD2B3D2B2D2B1D2B0F520789AE6B1
:10173E0030E31BA2B0B39200A2B1B39201A2B2B336
:10174E009202A2B3B39203E520601E7F002220B066
:10175E00037E010D20B1037E020D20B2037E030D28
:10176E0020B3037E040DED7064C2B012254C20B17F
:10177E00037E050D20B2037E060D20B3037E070DFA
:10178E00D2B0C2B112254C20B0037E080D20B20398
:10179E007E090D20B3037E0A0DD2B1C2B212254CC2
:1017AE0020B0037E0B0D20B1037E0C0D20B3037E03
:1017BE000D0DD2B2C2B312254C20B0037E0E0D20F9
:1017CE00B1037E0F0D20B2037E100DD2B3EDD39474
:0B17DE000150047883A6067883E6FF24
:0117E90022DD
:102218007884E6062485F8A6077884E65403F678D9
:1022280086E6FF18E6FEB507107887E6FDEFB505E8
:0D22380008ED0866700308A6067889E6FF29
:012245002276
:020C44008F23FC
:100C4600E4F524FE7F08FDFB7A007939120C1812B0
:100C5600172E1222188F25E5256076789466706720
:100C6600788E06E5236012E664047035E525249F38
:100C7600FF121A477524FE8028788EE6B40308E52D
:100C860025B40503122567788EE6B40414120046CF
:100C9600EF60047F0080027F50E525142FFF121AB3
:100CA60047788EE6D3940340027603E52564057003
:100CB6003F788D06E618700106788CB60B3208B6BA
:100CC600B82E75248080297894A625E4788EF6803F
:100CD6001FE47894F6788EF6C318E694B818E6946E
:100CE6000B4007E4F608F6752481E4788CF608F6DE
:100CF600E5B9A2E392047893E606248FF8A6207855
:100D060093E65403F6788FE6522008E6522008E66A
:100D1600522008E65220E523602E3000057FA012FF
:100D26001A473001057FA1121A473002057FA21229
:100D36001A473003057FA3121A47200403020E1335
:100D46007FB0121A47020E1330000F120046EF60F2
:100D5600047F0080027F50121A47300112120046AB
:100D6600EF60047F0080027F50EF04FF121A4730C5
:100D76000213120046EF60047F0080027F50EF24CA
:100D860002FF121A47300313120046EF60047F0079
:100D960080027F50EF2403FF121A4730041312001B
:100DA60046EF60047F0080027F50EF2410FF121A86
:100DB60047120046EF70262012233004201222AA82
:100DC600120B9D788AA60608A60706E61870010685
:100DD6001222AA120B8B788AA60608A607788BE63B
:100DE600184660250806E618700106788AE6FA08AD
:100DF600E6FBFF1222B6BC0110BDF40DAF031222B2
:100E0600B68F24E4788AF608F6A2049212E4F53A3C
:020E1600AF2407
:010E180022B7
:092515007B007A007939022047AD
:1023D300AF41122105E541600EE538C39405500372
:0A23E300053822E4F54122E4F53844
:0123ED0022CD
:100E19008D2A8B278A2889297E007F087D00120C5C
:100E290018E52AC39461401BE52AD3947A50141219
:100E39002503EF60081222A37402120B57E52A2436
:100E4900A38034E52AC39441401BE52AD3945A5020
:100E590014122503EF70081222A37402120B57E52E
:100E69002A24C38012E52AC394314014E52AD39475
:100E790039500DE52A24281222A3900002020F9767
:100E8900E52A120BF20EDB010EE8020EF0030F0445
:100E9900040F18050F29060ED00D0F45200F4F22FC
:100EA9000F852A0F712B0F7B2D0F672E0F8F2F0E9A
:100EB900C5300F5B3A0F3A5C00000F9A1222A390DB
:100EC90000027462020F971222A390000274280292
:100ED9000F97740812229A9000027415020F971244
:100EE90022A37402020B57122503EF6003020F9A23
:100EF9001222A39000027439020F97122503EF7092
:100F090003020F9A1222A39000027439020F97125A
:100F19000046EF707C1222A39000027453020F97CF
:100F2900120046EF606B1222A39000027453020F65
:100F3900971222A39000027431020F971222A390F4
:100F49000002742C8048122298F58275830074344B
:100F5900803C122298F58275830074338030122206
:100F6900A3900002746380261222A3900002745792
:100F7900801C1222A3900002745680121222A390A0
:100F89000002745580081222A39000027454120BB7
:020F99006922CB
:05255100020605040371
:10198F0005784040404040017700017D0FC10E01B6
:10199F004801C10F014200014300014410014510ED
:1020870074802525F582E43401F58322E0FFA3E07F
:10209700FA2FFDE433FCEA75F006A4FFAEF0020B5D
:1020A7009D7542FFE4F543F544D20F22786CE6FFB5
:1020B700C36480949022FEEFF582758300A3EE221D
:0B24DA00EF600443C3102253C3EF2245
:101F3D0053070753C3F8BF01065393FE43C301BFB5
:101F4D0002065393FD43C302BF03065393EF43C3EE
:101F5D0003BF04065393DF43C304BF05065393BF6A
:101F6D0043C305BF060653937F43C306BF07034311
:051F7D00C307D2E922B8
:08000300E4F5497F02021F3DF4
:101D3700E4FD74782DF8E675F064A4FFAEF0E4FCDA
:101D4700EF2464FBE43EFAED25E0246DF8E6F58325
:101D570008E6F582D39BE5839A400E74642FFFE46F
:101D67003EFE74782DF806801EEF249CFBEE34FFB0
:101D7700FAC3E5829BE5839A500D749C2FFF74FF8D
:0F1D87003EFE74782DF8160CBC08B50DBD05A3F3
:011D9600222A
:10243200787E763808763808763808763008763826
:052442007877763222DC
:102140007B007A0079237530077D7812226FE523B2
:1021500025242525252625272528652960037F0197
:1021600022787EA62308A62408A62508A62608A667
:0721700027787DA6287F00FF
:012177002245
:1021AF00787EE6F52908E6F52A08E6F52B08E6F528
:1021BF002C08E6F52D787DE6F52EE529252A252B29
:1021CF00252C252D252EF52F7B007A0079297534A6
:0621DF00077D78021BD110
:10188A00EF14601B146036146051146072240460F3
:10189A0003021920900180122093AB070219207BC2
:1018AA0006900180E0FF900182E0FE6F6068EED34F
:1018BA009F4005900181803A90018080477B0C907F
:1018CA000181E0FF900183E0FE6F604AEED39F4002
:1018DA0005900182801C90018180297B12900182EF
:1018EA00E0FF900184E0FE6F602CEED39F400B90E6
:1018FA000183122093EF2BFB801C90018280057BD1
:10190A0018900183E0FFFDA3E02DFDE433FCEF1204
:08191A00209EC3EB9FFBAF030D
:0119220022A2
:10123800E4F527F528F52574782525F9747E252504
:10124800F8C3E697FF122087EFF00525E525B405DA
:10125800E67877E6602716E4F525122087E0D39430
:1012680064400B747E2525F806122087E4F00525D6
:10127800E525B405E57877E670031221AF7877E6BF
:1012880060037F3222E4F525122087E0D39464407E
:1012980005122087E4F0122087E02528F528E43598
:1012A80027F5270525E525B405DE300E18787DE6F7
:1012B80024FFFFE434FFFEC3E5289FE5279E501C6A
:1012C800C20E7F3222787DE62401FFE433FEC3E5B7
:1012D800289FE5279E50037F3222D20EE4F525127F
:1012E8002087E0FFC39403401274812525F582E42A
:1012F8003401F583E0FEEFD39E50070525E525B4BC
:1013080004DD852526752504122087E0FFC3940394
:101318004012747F2525F582E43401F583E0FEEF61
:10132800D39E5003D525E1AF25E526B40406EF701A
:10133800037F3222EFD395265005AF2602188A1272
:0F134800188AEF2419F9AF2612188AC3E99FFFFC
:011357002273
:10077400300F0302084FE4F523E548705DEF60573E
:10078400E543D394014002804EE544C3954550109F
:10079400E543600575230C800375230D0544803AF9
:1007A400E545C394105030E4F544AE46AF47FC7DB4
:1007B4000B120B8B8E468F471D120B9D8E468F4757
:1007C4007C007D64120B9D8F45E543600575230A0B
:1007D400800875230B8003754801E548B4021D1297
:1007E40020B340057523058010D3EF6480948850AE
:1007F4000575230780037523067548011209D75030
:1008040033E54870057548038022E548B4011D129C
:1008140020B340057523028010D3EF648094885080
:100824000575230480037523037548021220A878F4
:100834006B0209C3786BE6FFC3648094B240030281
:1008440009D11220A808A6070209D17523011209AB
:10085400D75009E543940140030209D1786BE6FDC2
:10086400C3648094B2401FE54575F064A485F046E6
:10087400F547C20FE4F544E548640360030209D177
:100884007548010209D1C3ED6480949940030209BB
:1008940058E544C394105004054480037545107E04
:1008A40000786CE6FDFB3395E0FAEB2548FFEE3A61
:1008B400FE18E6FB3395E0FAD3EB9FEE6480F8EA8A
:1008C400648098403AE548786C6005060606800125
:1008D40006E542640160067542010209D18542437E
:1008E400E545D39544400415458009E545C3954441
:1008F40050020545E4F544F5487523080209D17E04
:1009040000EB2548FFEE3AFEED3395E0FCC3EF9D86
:10091400EC6480F8EE64809840030209D1E54878DD
:100924006C6005161616800116E5426006E4F54271
:100934000209D1854243E545D395444004154580D9
:1009440009E545C3954450020545E4F544F5487569
:1009540023098079786B74E726F608E6FFFD339562
:10096400E0FCED2401FDE43CFC18E6FEFB3395E0DD
:10097400FAD3EB9DEC6480F8EA648098401B786CB1
:1009840006E54264036007754203A606803F85427C
:10099400437548037523148034EB2401FDE43AFCC9
:1009A400EF3395E0FEC3ED9FEE6480F8EC6480982D
:1009B400501B786C16E5426402600975420218E621
:1009C40008F6800985424375480375231512000310
:0209D400AF234F
:0E09D60022121238786BEFF6C36480949922D7
:0A24EF00E54864016003754803220C
:1023B2007402120B57E4FF74802F12208BE012205C
:1023C200BD120B690FBF05EF787DE61220BD020B2F
:0123D20069A1
:101FC400EFC3940550027F05EFD3941940027F19A3
:101FD400787DA6077B007A0079247530077D781216
:101FE400226F787DE6FDF529E5242525252625277C
:101FF40025282529F52B7F7D12232BAD2B7F7E02EF
:02200400232B8C
:09251E00787DE624FDFF021FC4D4
:09252700787DE62403FF021FC4C5
:03003B00021E9C06
:0D1E9C00C0E0C0F0C083C082C0D075D00887
:101EA900C2E9E54925E0246DF8A6C508A6C4E549B7
:101EB90025E0246DF9E7C413131354017002054991
:101EC9007593FFE549C39405500CE5499025519355
:0C1ED900FF121F3D800653C3F8121D3796
:0B1EE500D0D0D082D083D0F0D0E0320B
:0919AF00019A00019C00019B005B
:0C24C30025E0FFE43344C0F5858F84223F
:10232B0075A15575A1AA43B104E4F5A1EF1224C31D
:10233B008D8E75869A75A15575A1AA53B1FBE4F5DF
:02234B00A122CD
:10248300AD07ED1224C375868EE58620E1F4AF8E89
:012493002226
:07253E00AD077F7F02232B94
:052556007F7F022483D9
:081BD1008B308A3189328D331B
:101BD90075A15575A1AA43B104E4F5A1E534C31370
:101BE900FFC374F09FF5FFC2AFE4F535E535C39542
:101BF900345041E5332535FFE433FEEF25E0FFEEB0
:101C09003344C0F5858F8475868EE58620E1FBAB6C
:101C190030AA31A932853582758300120AF3FF652E
:101C29008E600D8F8E75869AE58664406002153543
:101C3900053580B8D2AF75A15575A1AA53B1FBE49A
:021C4900F5A103
:011C4B002276
:08226F008B2C8A2D892EAE058F
:10227700E4FCECC395305018EE2CFF122483AB2CF2
:10228700AA2DA92E8C82758300EF120B690C80E2B0
:012297002224
:0F24A500EFC3940AEF50042430FF222437FF22A4
:061572008B238A24892569
:101578007DFA7C3F741E120B57AB23AA24A9259031
:1015880000017403120B69E5A1C4540FFF1224A5CE
:10159800AB23AA24A925900002EF120B699000033F
:1015A800E4120B69E5A1540FFF1224A5AB23AA246A
:1015B800A925900004EF120B69900005E4120B694D
:1015C800E4FEED2EF582E43CF583E493C4540FFF6A
:1015D8001224A5AB23AA24A92575F004EEA4240699
:1015E800F582E435F0F583EF120B69AB23AA24A941
:1015F8002575F004EEA42407F582E435F0F583E4BC
:10160800120B69ED2EF582E43CF583E493540FFF49
:101618001224A5AB23AA24A92575F004EEA4240856
:10162800F582E435F0F583EF120B69AB23AA24A900
:101638002575F004EEA42409F582E435F0F583E479
:0C164800120B690EEE640660030215CA66
:011654002273
:10146A00000101010101010101010202020202025D
:10147A000202020303030303030303040404040430
:10148A0004040505050505060606060607070707F7
:10149A000708080808090909090A0A0A0B0B0B0CAC
:1014AA000C0C0D0D0D0E0E0E0F0F0F101011111149
:1014BA0012121313141415151616171718181919CA
:1014CA001A1A1B1B1C1D1D1E1E1F2020212222232F
:1014DA002424252626272829292A2B2C2D2D2E2F70
:1014EA0030313232333435363738393A3B3C3D3E87
:1014FA003F404142434445464748494A4C4D4E4F76
:10150A0050515354555658595A5B5D5E5F61626437
:10151A00656668696B6C6D6F7072737577787A7BC4
:10152A007D7E8082838587888A8C8E8F919395961B
:10153A00989A9C9EA0A2A3A5A7A9ABADAFB1B3B53B
:10154A00B7BABCBEC0C2C4C6C9CBCDCFD1D4D6D817
:10155A00DBDDDFE2E4E7E9EBEEF0F3F5F8FAFDFFB5
:08156A00000102030803020165
:0219B800C1105C
:10234D0075CBF475CA8E2275CBE975CA1C22C3E50F
:10235D00CA943CE5CB94F622D3E5CA940CE5CB9414
:02236D00FE224E
:07254500789DA607D2ED22EC
:1023EE00789CE690156A93FEF8EF088002C313D826
:0623FE00FC789DF6D2ED13
:0124040022B5
:10249400759DC8759E0CE4FF12254543E920D2EDD5
:0124A4002215
:10245C00E4F54AC21143C940F5C8F5C912234DD25F
:04246C00CAD2AD2201
:05255B00C2CAC2AD225E
:0A24F900E4F54AC211D2CAD2AD22A6
:03002B0002135865
:10135800C0E0C0F0C083C082C0D075D000C000C05B
:1013680001C002C003C004C005C006C007C2CF3018
:101378001107D54A0DC2118009054AE54AB4FF0292
:10138800D211789BE614602014602F1460621460F8
:101398007624046003021420120046EF600512232D
:1013A8004D805B1223548056120046EF60051223CD
:1013B8004D8003122354AF4A805C301011E5CA15E2
:1013C800CA700215CB12235B5013C210800F05CAD6
:1013D800E5CA700205CB1223654002D210120046FE
:1013E800EF60047FFF8007E54A90146A93FF802628
:1013F800120046EF6005122354800312234DE54A7C
:1014080090146A93FF803D122354120046EF600443
:101418007FFF80027F00802C301011E5CA15CA704A
:101428000215CB12235B5013C210800F05CAE5CA00
:10143800700205CB1223654002D2103011047FFFE1
:1014480080027F001223EED007D006D005D004D04A
:1014580003D002D001D000D0D0D082D083D0F0D039
:02146800E03270
:03005B0002240577
:10240500C0E0C0D075D000C000789DE6F59BC2ED58
:07241500D000D0D0D0E0326E
:10236F00093D0950094F0106081E081F08200821C2
:10237F000A500A4F082B011B01190116011D011CE0
:02238F0009073C
:1020C700E52625E02441F582E43401F583E022EF9B
:1020D70025E02440F582E43401F583E022AB24AA0D
:1020E70025A926900002020AF3AB27AA28A92922CC
:0E20F700E52625E0243EF582E43401F583223F
:021E47008F2FDB
:101E4900E4F530E530C394785046AF3005301224BC
:101E590083EF603CD394115037EFB52F10AF301298
:101E69002483EF30E707C3E5309401FF22AF300543
:101E790030122483EF14600F248160071460082452
:101E890081700A053080BC0530053080B67FFF229D
:021E99007FFFC9
:011E9B002224
:10000E00121E478F2EE52EF46011052EAF2E1224F0
:0B001E0083AD0753057FAF2E12232B8C
:0100290022B4
:10200600E4F52EE52EC394785034AF2E052E122417
:1020160083BFFF07C3E52E9401FF22AF2E052E12C4
:102026002483EF14600F24816007146008248170F4
:102036000A052E80CE052E052E80C87FFF227FFF43
:012046002277
:0E24B400122006BFFF037F0022C374789FFF33
:0124C20022F7
:101AD300E4F524F525F526F52778407C017D017B87
:101AE300FF7A23796FFE7F22120AB4E525C3947827
:101AF3005056121B4C8F26E526604DD39411504847
:101B0300121B4C8F27E527603B1460322481601041
:101B1300147035AF2505251224831220F7EF8005B5
:101B23001220F774FFF0AF250525122483E526253F
:101B3300E0243FF582E43401F583EFF080AD052521
:081B4300052580A7052580A3FC
:091B4B0022AF2505251224832296
:061CC6008B248A2589260B
:101CCC00120ADAF527900001120AF3F52812200601
:101CDC008F2DE528601314602B2402704D1220E424
:101CEC0064A57046AF2702000EAF2712000E8527A1
:101CFC0029752A801220E4F52B7B007A007929754E
:101D0C0034038021AF2712000E852729752A8112F2
:101D1C0020E4F52B900003120AF3F52C7B007A00DB
:0A1D2C007929753404AD2D121BD186
:011D3600228A
:101EF000EF120B571FEFD39410400D900001E41226
:101F00000B69900002E480141220D6900001B4FF07
:101F100011E4120B69EF1220C9900002120B697FC5
:101F200003227401120B691220D6900002120B6971
:0D1F3000EF1220C9900003120B697F0422FC
:1017EA008F268B278A2889291220D6120BF2186491
:1017FA00001825011825021825041825081825108F
:10180A00182520182540182580181AFF0000182AC4
:10181A001220C7AB2AAA2BA92C803C1220C7602A07
:10182A007E007F087D001220F0120C18E526122097
:10183A00D71220F0120B571220F0900001740612F2
:10184A000B691220C790000280321220F0120ADAC5
:10185A00FFE5261220D74F020B571220F090000105
:10186A00120AF3C3940650171220C7FF900001749E
:10187A0001120B20F582758300A3A3EF120B6922D4
:1019C700020453E493A3F8E493A34003F68001F2DF
:1019D70008DFF48029E493A3F85407240CC8C33321
:1019E700C4540F4420C8834004F456800146F6DFF0
:1019F700E4800B0102040810204080901923E47E44
:101A0700019360BCA3FF543F30E509541FFEE493E4
:101A1700A360010ECF54C025E060A840B8E493A3AB
:101A2700FAE493A3F8E493A3C8C582C8CAC583CAD6
:101A3700F0A3C8C582C8CAC583CADFE9DEE780BE8E
:0119BA00002C
:1009E400E709F608DFFA8046E709F208DFFA803EF5
:1009F40088828C83E709F0A3DFFA8032E309F608E2
:100A0400DFFA8078E309F208DFFA807088828C8349
:100A1400E309F0A3DFFA806489828A83E0A3F608FD
:100A2400DFFA805889828A83E0A3F208DFFA804CD7
:100A340080D280FA80C680D4806980F280338010AE
:100A440080A680EA809A80A880DA80E280CA803317
:100A540089828A83ECFAE493A3C8C582C8CCC5838F
:100A6400CCF0A3C8C582C8CCC583CCDFE9DEE7805F
:100A74000D89828A83E493A3F608DFF9ECFAA9F0DE
:100A8400EDFB2289828A83ECFAE0A3C8C582C8CC34
:100A9400C583CCF0A3C8C582C8CCC583CCDFEADE4D
:100AA400E880DB89828A83E493A3F208DFF980CCAF
:100AB40088F0EF60010E4E60C388F0ED2402B404A8
:100AC4000050B9F582EB2402B4040050AF2323454F
:060AD4008223900A347336
:100ADA00BB010689828A83E0225002E722BBFE021A
:090AEA00E32289828A83E493224D
:100AF300BB010CE58229F582E5833AF583E02250B8
:100B030006E92582F8E622BBFE06E92582F8E22201
:0D0B1300E58229F582E5833AF583E493221B
:100B2000BB0111F8E58229F582E5833AF583E0C837
:100B300028F0E8225009C58229F8C58226C622BBC2
:100B4000FE0DC58229F8E2C5822582F2E58222EAFD
:070B50002583F583E99322E0
:100B5700BB010689828A83F0225002F722BBFE017D
:020B6700F32277
:100B6900F8BB010DE58229F582E5833AF583E8F0C2
:100B7900225006E92582C8F622BBFE05E92582C86E
:020B8900F22256
:100B8B00EF8DF0A4A8F0CF8CF0A428CE8DF0A42E7E
:020B9B00FE2238
:100B9D00BC000BBE0029EF8DF084FFADF022E4CC3C
:100BAD00F875F008EF2FFFEE33FEEC33FCEE9DEC05
:100BBD00984005FCEE9DFE0FD5F0E9E4CEFD22ED4B
:100BCD00F8F5F0EE8420D21CFEADF075F008EF2F95
:100BDD00FFED33FD4007985006D5F0F222C398FD86
:050BED000FD5F0EA2223
:100BF200D083D082F8E4937012740193700DA3A392
:100C020093F8740193F5828883E4737402936860A5
:060C1200EFA3A3A380DFA5
:10244700E4FFFE120ADA600C0FEF70010E09E97063
:05245700F20A80EF22F3
:100C1800EF4E6012EF60010EEDBB010B89828A83F3
:100C2800F0A3DFFCDEFA2289F05007F709DFFCA900
:0C0C3800F022BBFEFCF309DFFCA9F02257
:00000001FF
